:03000000020E509D
:0C0E5000787FE4F6D8FD75817F020A125D
:050E8000D280D28122A6
:050E8500C280C28122C1
:090E5C00D280D281C280C2812241
:090E6500C281C280D281D2802238
:090E6E00C280D281C281D280222F
:090E7700D280D281C281D2802216
:100DB100E4FEEF20E704C2808002D280D281C281AA
:100DC100EF25E0FF0EBE08EAD280D281A280E43393
:030DD100FFC281DD
:010DD40022FC
:100E1300E4FFFED281308003430701EEC394075001
:0B0E230004EF25E0FFC2810EBE08E8CE
:010E2E0022A1
:080C6600AD078B658A66896702
:100C6E007C01ED25E0FDEA494B6034E56860301209
:100C7E000E80120E85AF05801CAF681568EF601CE4
:100C8E00EC7019AB650567E567AA66700205661418
:100C9E00F91204F6FF120DB1AC0780DD120E65E5F8
:100CAE006A456B45696041E56C603D430501120E76
:100CBE0080120E85AF05120DB1AC07EC7024E56CF9
:100CCE006020120E13AB69056BE56BAA6A70020504
:100CDE006A14F9EF12053C156CE56C60E1120E6EAC
:0A0CEE0080DC120E77120E65AF04D1
:010CF80022D9
:100BC7000D0A20466C6F77205B5363636D5D3A2097
:100BD700002531312E3366000D0A2046756C6C20D6
:100BE7005363616C65205B5363636D5D3A20002539
:100BF7006C64000D0A2054656D70657261747572BE
:100C070065205BB0435D3A200025362E3266000D25
:100C17000A2053657269616C204E756D6265723A80
:100C270020000D0A2056657273696F6E3A20002501
:100C370062752E2562752E2562752E256275000D4B
:100C47000A000D0A20444556494345204E4F54207B
:0F0C5700524553504F4E44494E4721200D0A003D
:100A1200120DF5120E2FD2AF120E438F428E418D60
:100A2200408C3FAF42AE41AD40AC3F120CF9E47B8B
:100A3200F47A01F9F8D312055C50E8E4F5637568BD
:100A420001F569756A00756B43756C20FB7A007954
:100A5200637F20120C66EF6003020BB0854523858D
:100A62004424854325E52330E7057522FF8003E40E
:100A7200F522E4F526854C27854B28854A29AF25A2
:100A8200AE24AD23AC22EC1201D47BFE7AFF79FFB7
:100A9200784A120137C004C005C006C007AF29AEAC
:100AA20028AD27AC26EC1201D4D003D002D001D05D
:100AB2000012002E8F2F8E2E8D2D8C2C85482A858C
:100AC200472B7BFF7A0B79C71200037567FF7568A6
:100AD2000B7569D8852F6D852E6C852D6B852C6ADB
:100AE2007B007A0079301205FF7B007A00793012A0
:100AF20000037BFF7A0B79DF1200037567FF7568CD
:100B02000B7569F6AF29AE28AD27AC268F6D8E6CBA
:100B12008D6B8C6A7B007A0079301205FF7B007A3C
:100B22000079301200037BFF7A0B79FA1200037509
:100B320067FF75680C756910AC2AAD2BEC1201D9F0
:100B4200E4FBFA79C878421201378F6D8E6C8D6B97
:100B52008C6A7B007A0079301205FF7B007A00797B
:100B6200301200037BFF7A0C79161200037B007AA5
:100B720000794E1200037BFF7A0C7929120003756B
:100B820067FF75680C75693685596A855A6B855B8E
:100B92006C855C6D7B007A0079301205FF7B007AF0
:100BA2000079301200037BFF7A0C794680067BFFC6
:100BB2007A0C7949120003120E438F428E418D4006
:050BC2008C3F020A2532
:100E2F0075985053890F438920758DFD758BFDD2B1
:040E3F008EC2AC2291
:100D63008B0C8A0D890EAF051DEF601AC299AB0C6F
:100D7300050EE50EAA0D7002050D14F91204F6F521
:070D8300992099E280FB2298
:100003008B648A658966AB64AA65A9661204F66087
:1000130016C2990566E5667002056514F91204F6C1
:08002300F5992099E180FB2210
:100DF500E4F5C8F5C975CDF175CC9A85CCCA85CD14
:0E0E0500CBD2CAF50BF50AF509F508D2AD22DD
:03002B00020DD5EE
:100DD500C0E0C0D0E50B2402F50BE4350AF50AE4C2
:100DE5003509F509E43508F508C2CFD0D0D0E03291
:0C0E4300C2ADAF0BAE0AAD09AC08D2ADD9
:010E4F002280
:080CF9008F678E668D658C6427
:100D0100C2AD850B6B850A6A850969850868D2AD14
:100D1100AF6BAE6AAD69AC68AB67AA66A965A8643A
:100D2100D312055C5016C3E56B9567FFE56A9566BE
:100D3100FEE5699565FDE5689564FC22C374FF9540
:100D410067FF74FF9566FE74FF9565FD74FF9564FA
:100D5100FCEF256BFFEE356AFEED3569FDEC35687C
:010D6100FC95
:010D6200226E
:10002E00EC4D6011E8497017ED33EC3304600DE4CC
:10003E00FCFFFEFD22E933E8330470F8020247129A
:10004E00021258046009E4CC24815006285009029B
:10005E00025128400302024EC0E0EB4A7044B980C0
:10006E0006D0E0FB02023DEF4E701CBD8008EBFF98
:10007E00EAFEE9FD80EBE98DF0A4FEE5F002011742
:10008E00E9CDF9EAFEEBFFEF89F0A4FCE5F0CE89AD
:10009E00F0A42EFFE435F0CD89F0A42DFEE435F06A
:1000AE008067EF4E7005BD80D780C3EF8BF0A4AC98
:1000BE00F0EE8BF0A42CFCE435F0F8EF8AF0A42CD3
:1000CE00E5F038FCE433CB8DF0A42CFCE5F03BF8E6
:1000DE00EE8AF0A42CFCE5F038F8E433CF89F0A4D6
:1000EE002CFCE5F038CF3400CE89F0A42FFFE5F0DC
:1000FE003EFEE433C98DF0A42EFEE5F039CD8AF034
:10010E00A42FFFE5F03EFEE43DFD33D0E0FB5007AB
:10011E000BBB000F020251EC2CFCEF33FFEE33FE53
:06012E00ED33FD02022981
:10013400020251EC5D046005E859047003020247B1
:10014400120212580460F6EC4860F2EC7004FDFEF2
:10015400FF22C860DB2481C85009C398600250069E
:1001640002024E9850CAF582E9294B4A7005AB82C7
:1001740002023D75F0007C1A7880C3EF9BEE9AED85
:1001840099400DC3EF9BFFEE9AFEED99FDE842F016
:10019400DC23ACF0D0E0FFD0E0FED0E0FDAB822069
:1001A400E7101BEB60BAEC2CFCEF33FFEE33FEEDF3
:1001B40033FD020229E803F830E705C0F075F000CA
:1001C400EF2FFFEE33FEED33FD40B830E7C280AAD7
:1001D40075F020800E75F010800575F0087D007EA6
:1001E400007F003392D530D50312054EEC33401016
:1001F400EF33FFEE33FEED33FDEC33FCD5F0ED22AF
:0E020400E5F0247EA2D513CC92E7CDCEFF22EA
:1005A300E57B2467F8E6057B2278643007027867E9
:1005B300E475F00112056D0204F62000EB7F2ED2E4
:1005C300008018EF540F2490D43440D4FF30040B30
:1005D300EF24BFB41A0050032461FFE57C600215C9
:1005E3007C057FE57F7002057E30070D7864E47536
:1005F300F00112056DEF02053C020D8A7403D20768
:100603008003E4C207F57B8B648A658966E4F57C25
:10061300F57EF57FE57C60077F201205DE80F575AA
:100623007DFFC201C200C202C203C205C206C208E4
:100633001205ACFF700D3007057F001205EFAF7F89
:10064300AE7E22B4255FC2D5C2041205ACFF24D00E
:10065300B40A00501A75F00A787C30D50508B6FF45
:100663000106C6A426F620D5047002D20380D9243D
:10067300CFB41A00EF5004C2E5D2040208DCD20161
:1006830080C6D20080C0D20280BCD2D580BAD20547
:1006930080B47F201205DE2002077401B57C004080
:1006A300F11205A3FF1205DE020617D208D2068057
:1006B300951205A3FB1205A3FA1205A3F94A4B7081
:1006C3000679D37A097BFF20022EE57C602A7E001F
:1006D3008E8275830012050F60060EEE657D70F045
:1006E300C2D5EBC0E0EAC0E0E9C0E0EE12093CD0BD
:1006F300E0F9D0E0FAD0E0FB1204F6FF60AAEBC009
:10070300E0EAC0E0E9C0E01205DED0E02401F9D060
:10071300E03400FAD0E0FBE57D0460DCD57DD980D0
:1007230087D20280A212091F60F7E57D70010412CF
:10073300025CA97D600DE57D600914F57D1209C693
:10074300EF60F3EA30E702F404C3995077EAF42543
:100753007D0430E701E404F57D800D12091F60C1BB
:10076300EA057D257D12025CEA787AF630E701E43A
:10077300257D04D57D042005011412093CE4C0E065
:100783001209C6787AE6601320E70714F61205C645
:10079300802204F6D0E014C0E07F001205C6E57D98
:1007A30060071205BD157D800B3005031205BDD012
:1007B300E0020617D0E00480C512091F60A0E57DA2
:1007C3000412025C787AEAF6E57D200502600104F2
:0507D300240412093CA2
:1007D80074FF04C0E01209C61205C6E57D200502B3
:1007E80060031205BDD0E0B57DE87F451205D078DD
:1007F8007AE67F2B30E7047F2DF404C0E01205DE93
:10080800D0E075F00A84C0F01205C7D0E01205C721
:10081800020617791080027908C206C2088008D239
:10082800D5790A8004790AC2D5E57D047002F57D80
:10083800E4FAFDFEFF1205A3FC7B08200113120554
:10084800A3FD7B1030000A1205A3FE1205A3FF7B4F
:1008580020EC3382D592D55013C3E43000069FFFB5
:10086800E49EFEE42001039DFDE49CFCE4CBF8C279
:1008780001EC700CCFCECDCCE824F8F870F38017DB
:10088800C3EF33FFEE33FEED33FDEC33FCEB33FB0C
:10089800994002FB0FD8E9EB300105F8D0E0C448D5
:1008A800B201C0E00AEC4D4E4F78207B0070C2EADE
:1008B800B57D0040BCC0E012093ED0F0D0E0200178
:1008C80004C4C0E0C4B201C0F01205C7D0F0D5F02E
:1008D800EB02061712057D06B453081B5806854C13
:1008E800068142081F4F082744082749069A4308EB
:1008F8002D55075E4607BC4507284709F35006896A
:100908002D068D2E06B02B06912306AE2009DC2A73
:10091800064948000006A8E57DB4FF03757D061268
:1009280005A3FC1205A3FD1205A3FE1205A3FF787B
:100938007302028B790AA2D5200314300509B91075
:10094800020404B9080104A2D520060250010420BB
:1009580002689202B57C005034C0E07F2030031951
:100968007F30A20272067205500F120995C202C2A8
:1009780006C205C2087F30800F300503E9C0E012C7
:1009880005DE300503D0E0F9D0E0B57CCC300517A2
:100998007F30B9100C1205DE7F583004077F78804D
:1009A80003B908031205DE3002057F2D0205DE7F3C
:1009B800202008F87F2B2006F322920280CF7F00A8
:1009C800B4070050052473F8E6FF22286E756C6C96
:1009D8002900D2011205A33001F8C201787C30D574
:1009E8000108F60206492D504349581205A324036D
:1009F800B405004001E49009EE931205CF743A1251
:0A0A080005CFD203757C0402081B21
:10021200E9D2E7C933E833F892D5EDD2E7CD33EC32
:0702220033FC5002B2D522AB
:10022900EC30E7100FBF000C0EBE00080DBD000436
:100239000BEB6014A2D5EB13FCED92E7FD2274FFE2
:10024900FCFDFEFF22E480F8A2D574FF13FC7D803B
:03025900E480EF4F
:10025C00F920E72824F950037907E4F42402FB1869
:10026C00DBFDE624FB5014E9600DE4F618E604F619
:0F027C00B40A08E4F6D9F57401F60A22C2D522B5
:10028B00ED33EC3392D5FA602AB4FF33EDC2E77B42
:10029B00FF60067A0279B0E4227A0279B920D5049C
:1002AB007A0279B4224E614E002B494E46002D49FD
:1002BB004E4600E47A08F608DAFC7B00740722E865
:1002CB00C0E0ECC0E0EDC0E0EEC0E0EFC0E0EA75EE
:1002DB00F010A4CAABF075F04DA42BFBE435F0FC89
:1002EB00EA2410FAEB34C5FBEC34D9FCEDC2E7FF82
:1002FB0075F056A4F42411C5F0F434C58FF0A42A7C
:10030B00E5F03BE43CF620E7141204B6D0E0FFD056
:10031B00E0FED0E0FDD0E0FC1201378014F40412B3
:10032B0004B6D0E0FFD0E0FED0E0FDD0E0FC120040
:10033B002ED0E0F8E6FAEDD2E7CD33EC332482FB96
:10034B00E4C3CF33CFCE33CECD33CD33DBF37B070B
:10035B0075F00A846004F6081B0AE5F0F6088FF0C6
:10036B00740AA4FFACF08EF0740AA42CFEACF0500F
:10037B00010C8DF0740AA42CFDE435F0F608DBDEDD
:03038B00740722D2
:10038E00020247E86480F8E933E83360110460F054
:10039E00ED33EC337009E8FCE9FDEAFEEBFF2204D5
:1003AE0060DED3EB9FEA9EE99DE8C2E78CF0C2F7D0
:1003BE0095F0400CE8CCF8E9CDF9EACEFAEBCFFB9C
:1003CE0012021285D0F05804700320D5B3E80470E1
:1003DE00075002B2D502025192D5EC0460F7E4CC7C
:1003EE00C0E0C398F8603B94186008400DD0E0FB65
:1003FE00020229E4FBFAC9FC8028E830E406E4C9CD
:10040E00FBE4CAFCE830E305E4C9CACBFCE85407B8
:10041E006010F8C3E913F9EA13FAEB13FBEC13FCC3
:10042E00D8F130F52FC3E49CFCEF9BFFEE9AFEED66
:10043E0099FDD0E0FBEF4E4D4C701222DB03020211
:10044E004EEC2CFCEF33FFEE33FEED33FDED30E7DB
:10045E00EB020229EF2BFFEE3AFEED39FDD0E0FB69
:10046E0050130BBB0003020251ED13FDEE13FEEF12
:08047E0013FFEC13FC0202293C
:100486003F8000004120000042C80000447A00007E
:10049600461C400047C35000497424004B18968000
:1004A6004CBEBC205A0E1BCA6753C21C749DC5AEF7
:1004B600FB60065407601C23231204E4EB543860E7
:1004C600091204D01204DF12002EECF8EDF9EEFA50
:1004D600EFCB22EB1204DF80F1543803241C900486
:1004E60086FE93FC0EEE93FD0EEE930ECE93FF2248
:1004F600BB010689828A83E0225002E722BBFE0204
:09050600E32289828A83E4932236
:10050F00BB010CE58229F582E5833AF583E02250A1
:10051F0006E92582F8E622BBFE06E92582F8E222EB
:0D052F00E58229F582E5833AF583E4932205
:10053C00BB010689828A83F0225002F722BBFE019E
:02054C00F32298
:0E054E00C3E49FFFE49EFEE49DFDE49CFC22BE
:10055C00EB9FF5F0EA9E42F0E99D42F0E89C45F0F5
:01056C00226C
:10056D00FAE6FB0808E6F925F0F618E6CA3AF6228F
:10057D00D083D082F8E4937012740193700DA3A30D
:10058D0093F8740193F5828883E473740293686021
:06059D00EFA3A3A380DF21
:100D8A00EFB40A07740D120D95740A309811A899D8
:100D9A00B8130CC2983098FDA899C298B811F630C9
:070DAA0099FDC299F59922A1
:00000001FF
